{
    "abi": [
        {
            "type": "constructor",
            "inputs": [],
            "stateMutability": "nonpayable"
        },
        {
            "type": "receive",
            "stateMutability": "payable"
        },
        {
            "type": "function",
            "name": "MAX_SUPPLY",
            "inputs": [],
            "outputs": [
                {
                    "name": "",
                    "type": "uint256",
                    "internalType": "uint256"
                }
            ],
            "stateMutability": "view"
        },
        {
            "type": "function",
            "name": "TOKENS_PER_ETH_PRICE",
            "inputs": [],
            "outputs": [
                {
                    "name": "",
                    "type": "uint256",
                    "internalType": "uint256"
                }
            ],
            "stateMutability": "view"
        },
        {
            "type": "function",
            "name": "WEI_PER_TOKEN_SELL",
            "inputs": [],
            "outputs": [
                {
                    "name": "",
                    "type": "uint256",
                    "internalType": "uint256"
                }
            ],
            "stateMutability": "view"
        },
        {
            "type": "function",
            "name": "allowance",
            "inputs": [
                {
                    "name": "owner",
                    "type": "address",
                    "internalType": "address"
                },
                {
                    "name": "spender",
                    "type": "address",
                    "internalType": "address"
                }
            ],
            "outputs": [
                {
                    "name": "",
                    "type": "uint256",
                    "internalType": "uint256"
                }
            ],
            "stateMutability": "view"
        },
        {
            "type": "function",
            "name": "approve",
            "inputs": [
                {
                    "name": "spender",
                    "type": "address",
                    "internalType": "address"
                },
                {
                    "name": "value",
                    "type": "uint256",
                    "internalType": "uint256"
                }
            ],
            "outputs": [
                {
                    "name": "",
                    "type": "bool",
                    "internalType": "bool"
                }
            ],
            "stateMutability": "nonpayable"
        },
        {
            "type": "function",
            "name": "balanceOf",
            "inputs": [
                {
                    "name": "account",
                    "type": "address",
                    "internalType": "address"
                }
            ],
            "outputs": [
                {
                    "name": "",
                    "type": "uint256",
                    "internalType": "uint256"
                }
            ],
            "stateMutability": "view"
        },
        {
            "type": "function",
            "name": "buyTokens",
            "inputs": [],
            "outputs": [],
            "stateMutability": "payable"
        },
        {
            "type": "function",
            "name": "decimals",
            "inputs": [],
            "outputs": [
                {
                    "name": "",
                    "type": "uint8",
                    "internalType": "uint8"
                }
            ],
            "stateMutability": "view"
        },
        {
            "type": "function",
            "name": "name",
            "inputs": [],
            "outputs": [
                {
                    "name": "",
                    "type": "string",
                    "internalType": "string"
                }
            ],
            "stateMutability": "view"
        },
        {
            "type": "function",
            "name": "owner",
            "inputs": [],
            "outputs": [
                {
                    "name": "",
                    "type": "address",
                    "internalType": "address"
                }
            ],
            "stateMutability": "view"
        },
        {
            "type": "function",
            "name": "renounceOwnership",
            "inputs": [],
            "outputs": [],
            "stateMutability": "nonpayable"
        },
        {
            "type": "function",
            "name": "sellBack",
            "inputs": [
                {
                    "name": "amount",
                    "type": "uint256",
                    "internalType": "uint256"
                }
            ],
            "outputs": [],
            "stateMutability": "nonpayable"
        },
        {
            "type": "function",
            "name": "symbol",
            "inputs": [],
            "outputs": [
                {
                    "name": "",
                    "type": "string",
                    "internalType": "string"
                }
            ],
            "stateMutability": "view"
        },
        {
            "type": "function",
            "name": "totalSupply",
            "inputs": [],
            "outputs": [
                {
                    "name": "",
                    "type": "uint256",
                    "internalType": "uint256"
                }
            ],
            "stateMutability": "view"
        },
        {
            "type": "function",
            "name": "transfer",
            "inputs": [
                {
                    "name": "to",
                    "type": "address",
                    "internalType": "address"
                },
                {
                    "name": "value",
                    "type": "uint256",
                    "internalType": "uint256"
                }
            ],
            "outputs": [
                {
                    "name": "",
                    "type": "bool",
                    "internalType": "bool"
                }
            ],
            "stateMutability": "nonpayable"
        },
        {
            "type": "function",
            "name": "transferFrom",
            "inputs": [
                {
                    "name": "from",
                    "type": "address",
                    "internalType": "address"
                },
                {
                    "name": "to",
                    "type": "address",
                    "internalType": "address"
                },
                {
                    "name": "value",
                    "type": "uint256",
                    "internalType": "uint256"
                }
            ],
            "outputs": [
                {
                    "name": "",
                    "type": "bool",
                    "internalType": "bool"
                }
            ],
            "stateMutability": "nonpayable"
        },
        {
            "type": "function",
            "name": "transferOwnership",
            "inputs": [
                {
                    "name": "newOwner",
                    "type": "address",
                    "internalType": "address"
                }
            ],
            "outputs": [],
            "stateMutability": "nonpayable"
        },
        {
            "type": "function",
            "name": "withdrawETH",
            "inputs": [],
            "outputs": [],
            "stateMutability": "nonpayable"
        },
        {
            "type": "event",
            "name": "Approval",
            "inputs": [
                {
                    "name": "owner",
                    "type": "address",
                    "indexed": true,
                    "internalType": "address"
                },
                {
                    "name": "spender",
                    "type": "address",
                    "indexed": true,
                    "internalType": "address"
                },
                {
                    "name": "value",
                    "type": "uint256",
                    "indexed": false,
                    "internalType": "uint256"
                }
            ],
            "anonymous": false
        },
        {
            "type": "event",
            "name": "DebugAllowance",
            "inputs": [
                {
                    "name": "user",
                    "type": "address",
                    "indexed": true,
                    "internalType": "address"
                },
                {
                    "name": "allowance",
                    "type": "uint256",
                    "indexed": false,
                    "internalType": "uint256"
                }
            ],
            "anonymous": false
        },
        {
            "type": "event",
            "name": "DebugBalance",
            "inputs": [
                {
                    "name": "user",
                    "type": "address",
                    "indexed": true,
                    "internalType": "address"
                },
                {
                    "name": "balance",
                    "type": "uint256",
                    "indexed": false,
                    "internalType": "uint256"
                }
            ],
            "anonymous": false
        },
        {
            "type": "event",
            "name": "OwnershipTransferred",
            "inputs": [
                {
                    "name": "previousOwner",
                    "type": "address",
                    "indexed": true,
                    "internalType": "address"
                },
                {
                    "name": "newOwner",
                    "type": "address",
                    "indexed": true,
                    "internalType": "address"
                }
            ],
            "anonymous": false
        },
        {
            "type": "event",
            "name": "Transfer",
            "inputs": [
                {
                    "name": "from",
                    "type": "address",
                    "indexed": true,
                    "internalType": "address"
                },
                {
                    "name": "to",
                    "type": "address",
                    "indexed": true,
                    "internalType": "address"
                },
                {
                    "name": "value",
                    "type": "uint256",
                    "indexed": false,
                    "internalType": "uint256"
                }
            ],
            "anonymous": false
        },
        {
            "type": "error",
            "name": "ERC20InsufficientAllowance",
            "inputs": [
                {
                    "name": "spender",
                    "type": "address",
                    "internalType": "address"
                },
                {
                    "name": "allowance",
                    "type": "uint256",
                    "internalType": "uint256"
                },
                {
                    "name": "needed",
                    "type": "uint256",
                    "internalType": "uint256"
                }
            ]
        },
        {
            "type": "error",
            "name": "ERC20InsufficientBalance",
            "inputs": [
                {
                    "name": "sender",
                    "type": "address",
                    "internalType": "address"
                },
                {
                    "name": "balance",
                    "type": "uint256",
                    "internalType": "uint256"
                },
                {
                    "name": "needed",
                    "type": "uint256",
                    "internalType": "uint256"
                }
            ]
        },
        {
            "type": "error",
            "name": "ERC20InvalidApprover",
            "inputs": [
                {
                    "name": "approver",
                    "type": "address",
                    "internalType": "address"
                }
            ]
        },
        {
            "type": "error",
            "name": "ERC20InvalidReceiver",
            "inputs": [
                {
                    "name": "receiver",
                    "type": "address",
                    "internalType": "address"
                }
            ]
        },
        {
            "type": "error",
            "name": "ERC20InvalidSender",
            "inputs": [
                {
                    "name": "sender",
                    "type": "address",
                    "internalType": "address"
                }
            ]
        },
        {
            "type": "error",
            "name": "ERC20InvalidSpender",
            "inputs": [
                {
                    "name": "spender",
                    "type": "address",
                    "internalType": "address"
                }
            ]
        },
        {
            "type": "error",
            "name": "ExceedsMaxSupply",
            "inputs": [
                {
                    "name": "currentSupply",
                    "type": "uint256",
                    "internalType": "uint256"
                },
                {
                    "name": "attemptedMint",
                    "type": "uint256",
                    "internalType": "uint256"
                },
                {
                    "name": "maxSupply",
                    "type": "uint256",
                    "internalType": "uint256"
                }
            ]
        },
        {
            "type": "error",
            "name": "InsufficientEtherSent",
            "inputs": []
        },
        {
            "type": "error",
            "name": "NoEtherSent",
            "inputs": []
        },
        {
            "type": "error",
            "name": "NotEnoughEthInContract",
            "inputs": [
                {
                    "name": "contractBalance",
                    "type": "uint256",
                    "internalType": "uint256"
                },
                {
                    "name": "required",
                    "type": "uint256",
                    "internalType": "uint256"
                }
            ]
        },
        {
            "type": "error",
            "name": "OwnableInvalidOwner",
            "inputs": [
                {
                    "name": "owner",
                    "type": "address",
                    "internalType": "address"
                }
            ]
        },
        {
            "type": "error",
            "name": "OwnableUnauthorizedAccount",
            "inputs": [
                {
                    "name": "account",
                    "type": "address",
                    "internalType": "address"
                }
            ]
        },
        {
            "type": "error",
            "name": "WithdrawFailed",
            "inputs": []
        }
    ],
    "bytecode": {
        "object": "0x608060405234801561000f575f5ffd5b50336040518060400160405280601381526020017f526566756e6461626c6553616c65546f6b656e000000000000000000000000008152506040518060400160405280600381526020017f5246540000000000000000000000000000000000000000000000000000000000815250816003908161008c9190610424565b50806004908161009c9190610424565b5050505f73ffffffffffffffffffffffffffffffffffffffff168173ffffffffffffffffffffffffffffffffffffffff160361010f575f6040517f1e4fbdf70000000000000000000000000000000000000000000000000000000081526004016101069190610532565b60405180910390fd5b61011e8161012460201b60201c565b5061054b565b5f60055f9054906101000a900473ffffffffffffffffffffffffffffffffffffffff1690508160055f6101000a81548173ffffffffffffffffffffffffffffffffffffffff021916908373ffffffffffffffffffffffffffffffffffffffff1602179055508173ffffffffffffffffffffffffffffffffffffffff168173ffffffffffffffffffffffffffffffffffffffff167f8be0079c531659141344cd1fd0a4f28419497f9722a3daafe3b4186f6b6457e060405160405180910390a35050565b5f81519050919050565b7f4e487b71000000000000000000000000000000000000000000000000000000005f52604160045260245ffd5b7f4e487b71000000000000000000000000000000000000000000000000000000005f52602260045260245ffd5b5f600282049050600182168061026257607f821691505b6020821081036102755761027461021e565b5b50919050565b5f819050815f5260205f209050919050565b5f6020601f8301049050919050565b5f82821b905092915050565b5f600883026102d77fffffffffffffffffffffffffffffffffffffffffffffffffffffffffffffffff8261029c565b6102e1868361029c565b95508019841693508086168417925050509392505050565b5f819050919050565b5f819050919050565b5f61032561032061031b846102f9565b610302565b6102f9565b9050919050565b5f819050919050565b61033e8361030b565b61035261034a8261032c565b8484546102a8565b825550505050565b5f5f905090565b61036961035a565b610374818484610335565b505050565b5b818110156103975761038c5f82610361565b60018101905061037a565b5050565b601f8211156103dc576103ad8161027b565b6103b68461028d565b810160208510156103c5578190505b6103d96103d18561028d565b830182610379565b50505b505050565b5f82821c905092915050565b5f6103fc5f19846008026103e1565b1980831691505092915050565b5f61041483836103ed565b9150826002028217905092915050565b61042d826101e7565b67ffffffffffffffff811115610446576104456101f1565b5b610450825461024b565b61045b82828561039b565b5f60209050601f83116001811461048c575f841561047a578287015190505b6104848582610409565b8655506104eb565b601f19841661049a8661027b565b5f5b828110156104c15784890151825560018201915060208501945060208101905061049c565b868310156104de57848901516104da601f8916826103ed565b8355505b6001600288020188555050505b505050505050565b5f73ffffffffffffffffffffffffffffffffffffffff82169050919050565b5f61051c826104f3565b9050919050565b61052c81610512565b82525050565b5f6020820190506105455f830184610523565b92915050565b611b3b806105585f395ff3fe60806040526004361061010c575f3560e01c80638da5cb5b11610094578063d0febe4c11610063578063d0febe4c14610373578063dd62ed3e1461037d578063e086e5ec146103b9578063f2fde38b146103cf578063fc3fb0f0146103f75761011b565b80638da5cb5b146102bb57806395d89b41146102e5578063a9059cbb1461030f578063ad5d4bc51461034b5761011b565b8063313ce567116100db578063313ce567146101eb57806332cb6b0c146102155780636ca680f91461023f57806370a0823114610269578063715018a6146102a55761011b565b806306fdde031461011f578063095ea7b31461014957806318160ddd1461018557806323b872dd146101af5761011b565b3661011b57610119610421565b005b5f5ffd5b34801561012a575f5ffd5b50610133610637565b604051610140919061147b565b60405180910390f35b348015610154575f5ffd5b5061016f600480360381019061016a919061152c565b6106c7565b60405161017c9190611584565b60405180910390f35b348015610190575f5ffd5b506101996106e9565b6040516101a691906115ac565b60405180910390f35b3480156101ba575f5ffd5b506101d560048036038101906101d091906115c5565b6106f2565b6040516101e29190611584565b60405180910390f35b3480156101f6575f5ffd5b506101ff610720565b60405161020c9190611630565b60405180910390f35b348015610220575f5ffd5b50610229610728565b60405161023691906115ac565b60405180910390f35b34801561024a575f5ffd5b50610253610736565b60405161026091906115ac565b60405180910390f35b348015610274575f5ffd5b5061028f600480360381019061028a9190611649565b610741565b60405161029c91906115ac565b60405180910390f35b3480156102b0575f5ffd5b506102b9610786565b005b3480156102c6575f5ffd5b506102cf610799565b6040516102dc9190611683565b60405180910390f35b3480156102f0575f5ffd5b506102f96107c1565b604051610306919061147b565b60405180910390f35b34801561031a575f5ffd5b506103356004803603810190610330919061152c565b610851565b6040516103429190611584565b60405180910390f35b348015610356575f5ffd5b50610371600480360381019061036c919061169c565b610873565b005b61037b610421565b005b348015610388575f5ffd5b506103a3600480360381019061039e91906116c7565b610af5565b6040516103b091906115ac565b60405180910390f35b3480156103c4575f5ffd5b506103cd610b77565b005b3480156103da575f5ffd5b506103f560048036038101906103f09190611649565b610c2d565b005b348015610402575f5ffd5b5061040b610cb1565b60405161041891906115ac565b60405180910390f35b5f341161045a576040517f83d9dff600000000000000000000000000000000000000000000000000000000815260040160405180910390fd5b670de0b6b3a764000034101561049c576040517fbaa6562500000000000000000000000000000000000000000000000000000000815260040160405180910390fd5b5f670de0b6b3a7640000683635c9adc5dea00000346104bb9190611732565b6104c591906117a0565b90503073ffffffffffffffffffffffffffffffffffffffff163373ffffffffffffffffffffffffffffffffffffffff16036105685769d3c21bcecceda10000008161050e6106e9565b61051891906117d0565b1115610559576040517f08c379a00000000000000000000000000000000000000000000000000000000081526004016105509061184d565b60405180910390fd5b6105633082610cbe565b610634565b5f61057230610741565b90505f8111156105a9575f81831161058a578261058c565b815b9050610599303383610d3d565b80836105a5919061186b565b9250505b5f8211156106325769d3c21bcecceda1000000826105c56106e9565b6105cf91906117d0565b1115610627576105dd6106e9565b8269d3c21bcecceda10000006040517fea27aea800000000000000000000000000000000000000000000000000000000815260040161061e9392919061189e565b60405180910390fd5b6106313383610cbe565b5b505b50565b60606003805461064690611900565b80601f016020809104026020016040519081016040528092919081815260200182805461067290611900565b80156106bd5780601f10610694576101008083540402835291602001916106bd565b820191905f5260205f20905b8154815290600101906020018083116106a057829003601f168201915b5050505050905090565b5f5f6106d1610e2d565b90506106de818585610e34565b600191505092915050565b5f600254905090565b5f5f6106fc610e2d565b9050610709858285610e46565b610714858585610d3d565b60019150509392505050565b5f6012905090565b69d3c21bcecceda100000081565b6601c6bf5263400081565b5f5f5f8373ffffffffffffffffffffffffffffffffffffffff1673ffffffffffffffffffffffffffffffffffffffff1681526020019081526020015f20549050919050565b61078e610ed9565b6107975f610f60565b565b5f60055f9054906101000a900473ffffffffffffffffffffffffffffffffffffffff16905090565b6060600480546107d090611900565b80601f01602080910402602001604051908101604052809291908181526020018280546107fc90611900565b80156108475780601f1061081e57610100808354040283529160200191610847565b820191905f5260205f20905b81548152906001019060200180831161082a57829003601f168201915b5050505050905090565b5f5f61085b610e2d565b9050610868818585610d3d565b600191505092915050565b5f81116108b5576040517f08c379a00000000000000000000000000000000000000000000000000000000081526004016108ac9061197a565b60405180910390fd5b5f670de0b6b3a76400006601c6bf52634000836108d29190611732565b6108dc91906117a0565b9050804710156109255747816040517f0a83233900000000000000000000000000000000000000000000000000000000815260040161091c929190611998565b60405180910390fd5b816109303330610af5565b1015610971576040517f08c379a000000000000000000000000000000000000000000000000000000000815260040161096890611a09565b60405180910390fd5b3373ffffffffffffffffffffffffffffffffffffffff167ffa951f109e03ba430ba1f18adbf748a94aefd847ec6698d12da55349acb665446109b33330610af5565b6040516109c091906115ac565b60405180910390a23373ffffffffffffffffffffffffffffffffffffffff167fd9dde62d2cd50da951ba8d3ddc0d985c1b413bc489d050e687849b29912e5608610a0933610741565b604051610a1691906115ac565b60405180910390a2610a29333084610d3d565b610a48333084610a393330610af5565b610a43919061186b565b610e34565b5f3373ffffffffffffffffffffffffffffffffffffffff1682604051610a6d90611a54565b5f6040518083038185875af1925050503d805f8114610aa7576040519150601f19603f3d011682016040523d82523d5f602084013e610aac565b606091505b5050905080610af0576040517f08c379a0000000000000000000000000000000000000000000000000000000008152600401610ae790611ab2565b60405180910390fd5b505050565b5f60015f8473ffffffffffffffffffffffffffffffffffffffff1673ffffffffffffffffffffffffffffffffffffffff1681526020019081526020015f205f8373ffffffffffffffffffffffffffffffffffffffff1673ffffffffffffffffffffffffffffffffffffffff1681526020019081526020015f2054905092915050565b610b7f610ed9565b5f4790505f610b8c610799565b73ffffffffffffffffffffffffffffffffffffffff1682604051610baf90611a54565b5f6040518083038185875af1925050503d805f8114610be9576040519150601f19603f3d011682016040523d82523d5f602084013e610bee565b606091505b5050905080610c29576040517f750b219c00000000000000000000000000000000000000000000000000000000815260040160405180910390fd5b5050565b610c35610ed9565b5f73ffffffffffffffffffffffffffffffffffffffff168173ffffffffffffffffffffffffffffffffffffffff1603610ca5575f6040517f1e4fbdf7000000000000000000000000000000000000000000000000000000008152600401610c9c9190611683565b60405180910390fd5b610cae81610f60565b50565b683635c9adc5dea0000081565b5f73ffffffffffffffffffffffffffffffffffffffff168273ffffffffffffffffffffffffffffffffffffffff1603610d2e575f6040517fec442f05000000000000000000000000000000000000000000000000000000008152600401610d259190611683565b60405180910390fd5b610d395f8383611023565b5050565b5f73ffffffffffffffffffffffffffffffffffffffff168373ffffffffffffffffffffffffffffffffffffffff1603610dad575f6040517f96c6fd1e000000000000000000000000000000000000000000000000000000008152600401610da49190611683565b60405180910390fd5b5f73ffffffffffffffffffffffffffffffffffffffff168273ffffffffffffffffffffffffffffffffffffffff1603610e1d575f6040517fec442f05000000000000000000000000000000000000000000000000000000008152600401610e149190611683565b60405180910390fd5b610e28838383611023565b505050565b5f33905090565b610e41838383600161123c565b505050565b5f610e518484610af5565b90507fffffffffffffffffffffffffffffffffffffffffffffffffffffffffffffffff811015610ed35781811015610ec4578281836040517ffb8f41b2000000000000000000000000000000000000000000000000000000008152600401610ebb93929190611ad0565b60405180910390fd5b610ed284848484035f61123c565b5b50505050565b610ee1610e2d565b73ffffffffffffffffffffffffffffffffffffffff16610eff610799565b73ffffffffffffffffffffffffffffffffffffffff1614610f5e57610f22610e2d565b6040517f118cdaa7000000000000000000000000000000000000000000000000000000008152600401610f559190611683565b60405180910390fd5b565b5f60055f9054906101000a900473ffffffffffffffffffffffffffffffffffffffff1690508160055f6101000a81548173ffffffffffffffffffffffffffffffffffffffff021916908373ffffffffffffffffffffffffffffffffffffffff1602179055508173ffffffffffffffffffffffffffffffffffffffff168173ffffffffffffffffffffffffffffffffffffffff167f8be0079c531659141344cd1fd0a4f28419497f9722a3daafe3b4186f6b6457e060405160405180910390a35050565b5f73ffffffffffffffffffffffffffffffffffffffff168373ffffffffffffffffffffffffffffffffffffffff1603611073578060025f82825461106791906117d0565b92505081905550611141565b5f5f5f8573ffffffffffffffffffffffffffffffffffffffff1673ffffffffffffffffffffffffffffffffffffffff1681526020019081526020015f20549050818110156110fc578381836040517fe450d38c0000000000000000000000000000000000000000000000000000000081526004016110f393929190611ad0565b60405180910390fd5b8181035f5f8673ffffffffffffffffffffffffffffffffffffffff1673ffffffffffffffffffffffffffffffffffffffff1681526020019081526020015f2081905550505b5f73ffffffffffffffffffffffffffffffffffffffff168273ffffffffffffffffffffffffffffffffffffffff1603611188578060025f82825403925050819055506111d2565b805f5f8473ffffffffffffffffffffffffffffffffffffffff1673ffffffffffffffffffffffffffffffffffffffff1681526020019081526020015f205f82825401925050819055505b8173ffffffffffffffffffffffffffffffffffffffff168373ffffffffffffffffffffffffffffffffffffffff167fddf252ad1be2c89b69c2b068fc378daa952ba7f163c4a11628f55a4df523b3ef8360405161122f91906115ac565b60405180910390a3505050565b5f73ffffffffffffffffffffffffffffffffffffffff168473ffffffffffffffffffffffffffffffffffffffff16036112ac575f6040517fe602df050000000000000000000000000000000000000000000000000000000081526004016112a39190611683565b60405180910390fd5b5f73ffffffffffffffffffffffffffffffffffffffff168373ffffffffffffffffffffffffffffffffffffffff160361131c575f6040517f94280d620000000000000000000000000000000000000000000000000000000081526004016113139190611683565b60405180910390fd5b8160015f8673ffffffffffffffffffffffffffffffffffffffff1673ffffffffffffffffffffffffffffffffffffffff1681526020019081526020015f205f8573ffffffffffffffffffffffffffffffffffffffff1673ffffffffffffffffffffffffffffffffffffffff1681526020019081526020015f20819055508015611405578273ffffffffffffffffffffffffffffffffffffffff168473ffffffffffffffffffffffffffffffffffffffff167f8c5be1e5ebec7d5bd14f71427d1e84f3dd0314c0f7b2291e5b200ac8c7c3b925846040516113fc91906115ac565b60405180910390a35b50505050565b5f81519050919050565b5f82825260208201905092915050565b8281835e5f83830152505050565b5f601f19601f8301169050919050565b5f61144d8261140b565b6114578185611415565b9350611467818560208601611425565b61147081611433565b840191505092915050565b5f6020820190508181035f8301526114938184611443565b905092915050565b5f5ffd5b5f73ffffffffffffffffffffffffffffffffffffffff82169050919050565b5f6114c88261149f565b9050919050565b6114d8816114be565b81146114e2575f5ffd5b50565b5f813590506114f3816114cf565b92915050565b5f819050919050565b61150b816114f9565b8114611515575f5ffd5b50565b5f8135905061152681611502565b92915050565b5f5f604083850312156115425761154161149b565b5b5f61154f858286016114e5565b925050602061156085828601611518565b9150509250929050565b5f8115159050919050565b61157e8161156a565b82525050565b5f6020820190506115975f830184611575565b92915050565b6115a6816114f9565b82525050565b5f6020820190506115bf5f83018461159d565b92915050565b5f5f5f606084860312156115dc576115db61149b565b5b5f6115e9868287016114e5565b93505060206115fa868287016114e5565b925050604061160b86828701611518565b9150509250925092565b5f60ff82169050919050565b61162a81611615565b82525050565b5f6020820190506116435f830184611621565b92915050565b5f6020828403121561165e5761165d61149b565b5b5f61166b848285016114e5565b91505092915050565b61167d816114be565b82525050565b5f6020820190506116965f830184611674565b92915050565b5f602082840312156116b1576116b061149b565b5b5f6116be84828501611518565b91505092915050565b5f5f604083850312156116dd576116dc61149b565b5b5f6116ea858286016114e5565b92505060206116fb858286016114e5565b9150509250929050565b7f4e487b71000000000000000000000000000000000000000000000000000000005f52601160045260245ffd5b5f61173c826114f9565b9150611747836114f9565b9250828202611755816114f9565b9150828204841483151761176c5761176b611705565b5b5092915050565b7f4e487b71000000000000000000000000000000000000000000000000000000005f52601260045260245ffd5b5f6117aa826114f9565b91506117b5836114f9565b9250826117c5576117c4611773565b5b828204905092915050565b5f6117da826114f9565b91506117e5836114f9565b92508282019050808211156117fd576117fc611705565b5b92915050565b7f45786365656473206d617820737570706c7900000000000000000000000000005f82015250565b5f611837601283611415565b915061184282611803565b602082019050919050565b5f6020820190508181035f8301526118648161182b565b9050919050565b5f611875826114f9565b9150611880836114f9565b925082820390508181111561189857611897611705565b5b92915050565b5f6060820190506118b15f83018661159d565b6118be602083018561159d565b6118cb604083018461159d565b949350505050565b7f4e487b71000000000000000000000000000000000000000000000000000000005f52602260045260245ffd5b5f600282049050600182168061191757607f821691505b60208210810361192a576119296118d3565b5b50919050565b7f53656c6c20616d6f756e74206d757374206265203e20300000000000000000005f82015250565b5f611964601783611415565b915061196f82611930565b602082019050919050565b5f6020820190508181035f83015261199181611958565b9050919050565b5f6040820190506119ab5f83018561159d565b6119b8602083018461159d565b9392505050565b7f496e636f727265637420616c6c6f77616e6365000000000000000000000000005f82015250565b5f6119f3601383611415565b91506119fe826119bf565b602082019050919050565b5f6020820190508181035f830152611a20816119e7565b9050919050565b5f81905092915050565b50565b5f611a3f5f83611a27565b9150611a4a82611a31565b5f82019050919050565b5f611a5e82611a34565b9150819050919050565b7f455448207472616e73666572206661696c6564000000000000000000000000005f82015250565b5f611a9c601383611415565b9150611aa782611a68565b602082019050919050565b5f6020820190508181035f830152611ac981611a90565b9050919050565b5f606082019050611ae35f830186611674565b611af0602083018561159d565b611afd604083018461159d565b94935050505056fea264697066735822122084fa1752120f8c7386890e1a0f1b2484625a2480460a344a5f58d5916e1d66d664736f6c634300081b0033",
        "linkReferences": {}
    },
    "methodIdentifiers": {
        "MAX_SUPPLY()": "32cb6b0c",
        "TOKENS_PER_ETH_PRICE()": "fc3fb0f0",
        "WEI_PER_TOKEN_SELL()": "6ca680f9",
        "allowance(address,address)": "dd62ed3e",
        "approve(address,uint256)": "095ea7b3",
        "balanceOf(address)": "70a08231",
        "buyTokens()": "d0febe4c",
        "decimals()": "313ce567",
        "name()": "06fdde03",
        "owner()": "8da5cb5b",
        "renounceOwnership()": "715018a6",
        "sellBack(uint256)": "ad5d4bc5",
        "symbol()": "95d89b41",
        "totalSupply()": "18160ddd",
        "transfer(address,uint256)": "a9059cbb",
        "transferFrom(address,address,uint256)": "23b872dd",
        "transferOwnership(address)": "f2fde38b",
        "withdrawETH()": "e086e5ec"
    },
    "id": 6
}